{
  "contractName": "LandRegistry",
  "abi": [
    {
      "inputs": [
        {
          "internalType": "address",
          "name": "_registrar",
          "type": "address"
        }
      ],
      "payable": false,
      "stateMutability": "nonpayable",
      "type": "constructor"
    },
    {
      "anonymous": false,
      "inputs": [
        {
          "indexed": false,
          "internalType": "string",
          "name": "requestId",
          "type": "string"
        },
        {
          "indexed": false,
          "internalType": "address",
          "name": "acceptor",
          "type": "address"
        },
        {
          "indexed": false,
          "internalType": "uint256",
          "name": "timestamp",
          "type": "uint256"
        }
      ],
      "name": "AcceptBuyRequest",
      "type": "event"
    },
    {
      "anonymous": false,
      "inputs": [
        {
          "indexed": false,
          "internalType": "string",
          "name": "requestId",
          "type": "string"
        },
        {
          "indexed": false,
          "internalType": "address",
          "name": "acceptor",
          "type": "address"
        },
        {
          "indexed": false,
          "internalType": "uint256",
          "name": "timestamp",
          "type": "uint256"
        }
      ],
      "name": "AcceptBuyRequestFailed",
      "type": "event"
    },
    {
      "anonymous": false,
      "inputs": [
        {
          "indexed": false,
          "internalType": "string",
          "name": "requestId",
          "type": "string"
        },
        {
          "indexed": false,
          "internalType": "string",
          "name": "landId",
          "type": "string"
        },
        {
          "indexed": false,
          "internalType": "address",
          "name": "requester",
          "type": "address"
        },
        {
          "indexed": false,
          "internalType": "address",
          "name": "owner",
          "type": "address"
        },
        {
          "indexed": false,
          "internalType": "uint256",
          "name": "amount",
          "type": "uint256"
        },
        {
          "indexed": false,
          "internalType": "uint256",
          "name": "timestamp",
          "type": "uint256"
        }
      ],
      "name": "BuyRequest",
      "type": "event"
    },
    {
      "anonymous": false,
      "inputs": [
        {
          "indexed": false,
          "internalType": "string",
          "name": "requestId",
          "type": "string"
        },
        {
          "indexed": false,
          "internalType": "string",
          "name": "landId",
          "type": "string"
        },
        {
          "indexed": false,
          "internalType": "address",
          "name": "requester",
          "type": "address"
        },
        {
          "indexed": false,
          "internalType": "address",
          "name": "owner",
          "type": "address"
        },
        {
          "indexed": false,
          "internalType": "uint256",
          "name": "amount",
          "type": "uint256"
        },
        {
          "indexed": false,
          "internalType": "uint256",
          "name": "timestamp",
          "type": "uint256"
        }
      ],
      "name": "BuyRequestFailed",
      "type": "event"
    },
    {
      "anonymous": false,
      "inputs": [
        {
          "indexed": false,
          "internalType": "string",
          "name": "landId",
          "type": "string"
        },
        {
          "indexed": false,
          "internalType": "address",
          "name": "owner",
          "type": "address"
        },
        {
          "indexed": false,
          "internalType": "uint256",
          "name": "timestamp",
          "type": "uint256"
        }
      ],
      "name": "NewRegistration",
      "type": "event"
    },
    {
      "anonymous": false,
      "inputs": [
        {
          "indexed": false,
          "internalType": "string",
          "name": "landId",
          "type": "string"
        },
        {
          "indexed": false,
          "internalType": "address",
          "name": "owner",
          "type": "address"
        },
        {
          "indexed": false,
          "internalType": "uint256",
          "name": "timestamp",
          "type": "uint256"
        }
      ],
      "name": "NewRegistrationFailed",
      "type": "event"
    },
    {
      "anonymous": false,
      "inputs": [
        {
          "indexed": false,
          "internalType": "string",
          "name": "landId",
          "type": "string"
        },
        {
          "indexed": false,
          "internalType": "address",
          "name": "owner",
          "type": "address"
        },
        {
          "indexed": false,
          "internalType": "address",
          "name": "receiver",
          "type": "address"
        },
        {
          "indexed": false,
          "internalType": "uint256",
          "name": "timestamp",
          "type": "uint256"
        }
      ],
      "name": "OwnershipTransferFailed",
      "type": "event"
    },
    {
      "anonymous": false,
      "inputs": [
        {
          "indexed": false,
          "internalType": "string",
          "name": "landId",
          "type": "string"
        },
        {
          "indexed": false,
          "internalType": "address",
          "name": "owner",
          "type": "address"
        },
        {
          "indexed": false,
          "internalType": "address",
          "name": "receiver",
          "type": "address"
        },
        {
          "indexed": false,
          "internalType": "uint256",
          "name": "timestamp",
          "type": "uint256"
        }
      ],
      "name": "OwnershipTransferred",
      "type": "event"
    },
    {
      "anonymous": false,
      "inputs": [
        {
          "indexed": false,
          "internalType": "string",
          "name": "requestId",
          "type": "string"
        },
        {
          "indexed": false,
          "internalType": "uint256",
          "name": "timestamp",
          "type": "uint256"
        }
      ],
      "name": "Transfer",
      "type": "event"
    },
    {
      "anonymous": false,
      "inputs": [
        {
          "indexed": false,
          "internalType": "string",
          "name": "requestId",
          "type": "string"
        },
        {
          "indexed": false,
          "internalType": "uint256",
          "name": "timestamp",
          "type": "uint256"
        }
      ],
      "name": "TransferFailed",
      "type": "event"
    },
    {
      "anonymous": false,
      "inputs": [
        {
          "indexed": false,
          "internalType": "string",
          "name": "requestId",
          "type": "string"
        },
        {
          "indexed": false,
          "internalType": "address",
          "name": "withdrawer",
          "type": "address"
        },
        {
          "indexed": false,
          "internalType": "uint256",
          "name": "timestamp",
          "type": "uint256"
        }
      ],
      "name": "Withdrawal",
      "type": "event"
    },
    {
      "anonymous": false,
      "inputs": [
        {
          "indexed": false,
          "internalType": "string",
          "name": "requestId",
          "type": "string"
        },
        {
          "indexed": false,
          "internalType": "address",
          "name": "withdrawer",
          "type": "address"
        },
        {
          "indexed": false,
          "internalType": "uint256",
          "name": "timestamp",
          "type": "uint256"
        }
      ],
      "name": "WithdrawalFailed",
      "type": "event"
    },
    {
      "constant": true,
      "inputs": [],
      "name": "registrar",
      "outputs": [
        {
          "internalType": "address",
          "name": "",
          "type": "address"
        }
      ],
      "payable": false,
      "stateMutability": "view",
      "type": "function"
    },
    {
      "constant": false,
      "inputs": [
        {
          "internalType": "string",
          "name": "landId",
          "type": "string"
        },
        {
          "internalType": "address payable",
          "name": "_owner",
          "type": "address"
        }
      ],
      "name": "register",
      "outputs": [],
      "payable": false,
      "stateMutability": "nonpayable",
      "type": "function"
    },
    {
      "constant": false,
      "inputs": [
        {
          "internalType": "string",
          "name": "requestId",
          "type": "string"
        },
        {
          "internalType": "string",
          "name": "landId",
          "type": "string"
        }
      ],
      "name": "buyRequest",
      "outputs": [],
      "payable": true,
      "stateMutability": "payable",
      "type": "function"
    },
    {
      "constant": false,
      "inputs": [
        {
          "internalType": "string",
          "name": "requestId",
          "type": "string"
        }
      ],
      "name": "acceptBuyRequest",
      "outputs": [],
      "payable": false,
      "stateMutability": "nonpayable",
      "type": "function"
    },
    {
      "constant": false,
      "inputs": [
        {
          "internalType": "string",
          "name": "requestId",
          "type": "string"
        }
      ],
      "name": "withdrawBuyRequest",
      "outputs": [],
      "payable": false,
      "stateMutability": "nonpayable",
      "type": "function"
    },
    {
      "constant": false,
      "inputs": [
        {
          "internalType": "string",
          "name": "requestId",
          "type": "string"
        }
      ],
      "name": "transfer",
      "outputs": [],
      "payable": false,
      "stateMutability": "nonpayable",
      "type": "function"
    },
    {
      "constant": true,
      "inputs": [
        {
          "internalType": "string",
          "name": "landId",
          "type": "string"
        }
      ],
      "name": "getOwner",
      "outputs": [
        {
          "internalType": "address",
          "name": "",
          "type": "address"
        }
      ],
      "payable": false,
      "stateMutability": "view",
      "type": "function"
    },
    {
      "constant": true,
      "inputs": [
        {
          "internalType": "string",
          "name": "requestId",
          "type": "string"
        }
      ],
      "name": "getBuyOrder",
      "outputs": [
        {
          "internalType": "string",
          "name": "",
          "type": "string"
        },
        {
          "internalType": "address",
          "name": "",
          "type": "address"
        },
        {
          "internalType": "address",
          "name": "",
          "type": "address"
        },
        {
          "internalType": "uint256",
          "name": "",
          "type": "uint256"
        },
        {
          "internalType": "uint256",
          "name": "",
          "type": "uint256"
        },
        {
          "internalType": "bool",
          "name": "",
          "type": "bool"
        },
        {
          "internalType": "bool",
          "name": "",
          "type": "bool"
        },
        {
          "internalType": "bool",
          "name": "",
          "type": "bool"
        }
      ],
      "payable": false,
      "stateMutability": "view",
      "type": "function"
    }
  ],
  "bytecode": "0x608060405234801561001057600080fd5b506040516128703803806128708339818101604052602081101561003357600080fd5b810190808051906020019092919050505033600073ffffffffffffffffffffffffffffffffffffffff168173ffffffffffffffffffffffffffffffffffffffff16141561007f57600080fd5b816000806101000a81548173ffffffffffffffffffffffffffffffffffffffff021916908373ffffffffffffffffffffffffffffffffffffffff16021790555050506127a0806100d06000396000f3fe60806040526004361061007b5760003560e01c80637775dcc31161004e5780637775dcc31461038f5780639f3a239a14610565578063a0258d0b1461062d578063a486867b146106f55761007b565b80630162d00c146100805780631e59c529146101485780632b20e397146102305780634aaf4a1214610287575b600080fd5b34801561008c57600080fd5b50610146600480360360208110156100a357600080fd5b81019080803590602001906401000000008111156100c057600080fd5b8201836020820111156100d257600080fd5b803590602001918460018302840111640100000000831117156100f457600080fd5b91908080601f016020809104026020016040519081016040528093929190818152602001838380828437600081840152601f19601f820116905080830192505050505050509192919290505050610847565b005b34801561015457600080fd5b5061022e6004803603604081101561016b57600080fd5b810190808035906020019064010000000081111561018857600080fd5b82018360208201111561019a57600080fd5b803590602001918460018302840111640100000000831117156101bc57600080fd5b91908080601f016020809104026020016040519081016040528093929190818152602001838380828437600081840152601f19601f820116905080830192505050505050509192919290803573ffffffffffffffffffffffffffffffffffffffff169060200190929190505050610c96565b005b34801561023c57600080fd5b5061024561104a565b604051808273ffffffffffffffffffffffffffffffffffffffff1673ffffffffffffffffffffffffffffffffffffffff16815260200191505060405180910390f35b34801561029357600080fd5b5061034d600480360360208110156102aa57600080fd5b81019080803590602001906401000000008111156102c757600080fd5b8201836020820111156102d957600080fd5b803590602001918460018302840111640100000000831117156102fb57600080fd5b91908080601f016020809104026020016040519081016040528093929190818152602001838380828437600081840152601f19601f82011690508083019250505050505050919291929050505061106f565b604051808273ffffffffffffffffffffffffffffffffffffffff1673ffffffffffffffffffffffffffffffffffffffff16815260200191505060405180910390f35b34801561039b57600080fd5b50610455600480360360208110156103b257600080fd5b81019080803590602001906401000000008111156103cf57600080fd5b8201836020820111156103e157600080fd5b8035906020019184600183028401116401000000008311171561040357600080fd5b91908080601f016020809104026020016040519081016040528093929190818152602001838380828437600081840152601f19601f820116905080830192505050505050509192919290505050611102565b60405180806020018973ffffffffffffffffffffffffffffffffffffffff1673ffffffffffffffffffffffffffffffffffffffff1681526020018873ffffffffffffffffffffffffffffffffffffffff1673ffffffffffffffffffffffffffffffffffffffff16815260200187815260200186815260200185151515158152602001841515151581526020018315151515815260200182810382528a818151815260200191508051906020019080838360005b83811015610523578082015181840152602081019050610508565b50505050905090810190601f1680156105505780820380516001836020036101000a031916815260200191505b50995050505050505050505060405180910390f35b34801561057157600080fd5b5061062b6004803603602081101561058857600080fd5b81019080803590602001906401000000008111156105a557600080fd5b8201836020820111156105b757600080fd5b803590602001918460018302840111640100000000831117156105d957600080fd5b91908080601f016020809104026020016040519081016040528093929190818152602001838380828437600081840152601f19601f8201169050808301925050505050505091929192905050506112c7565b005b34801561063957600080fd5b506106f36004803603602081101561065057600080fd5b810190808035906020019064010000000081111561066d57600080fd5b82018360208201111561067f57600080fd5b803590602001918460018302840111640100000000831117156106a157600080fd5b91908080601f016020809104026020016040519081016040528093929190818152602001838380828437600081840152601f19601f820116905080830192505050505050509192919290505050611629565b005b6108456004803603604081101561070b57600080fd5b810190808035906020019064010000000081111561072857600080fd5b82018360208201111561073a57600080fd5b8035906020019184600183028401116401000000008311171561075c57600080fd5b91908080601f016020809104026020016040519081016040528093929190818152602001838380828437600081840152601f19601f820116905080830192505050505050509192919290803590602001906401000000008111156107bf57600080fd5b8201836020820111156107d157600080fd5b803590602001918460018302840111640100000000831117156107f357600080fd5b91908080601f016020809104026020016040519081016040528093929190818152602001838380828437600081840152601f19601f820116905080830192505050505050509192919290505050611a0e565b005b33600073ffffffffffffffffffffffffffffffffffffffff168173ffffffffffffffffffffffffffffffffffffffff16141561088257600080fd5b60006002836040518082805190602001908083835b602083106108ba5780518252602082019150602081019050602083039250610897565b6001836020036101000a0380198251168184511680821785525050505050509050019150509081526020016040518091039020905060018160000160405180828054600181600116156101000203166002900480156109505780601f1061092e576101008083540402835291820191610950565b820191906000526020600020905b81548152906001019060200180831161093c575b5050915050908152602001604051809103902060009054906101000a900473ffffffffffffffffffffffffffffffffffffffff1673ffffffffffffffffffffffffffffffffffffffff163373ffffffffffffffffffffffffffffffffffffffff16148015610aa157508060020160009054906101000a900473ffffffffffffffffffffffffffffffffffffffff1673ffffffffffffffffffffffffffffffffffffffff166001826000016040518082805460018160011615610100020316600290048015610a555780601f10610a33576101008083540402835291820191610a55565b820191906000526020600020905b815481529060010190602001808311610a41575b5050915050908152602001604051809103902060009054906101000a900473ffffffffffffffffffffffffffffffffffffffff1673ffffffffffffffffffffffffffffffffffffffff16145b15610bb8578060050160029054906101000a900460ff16610bb75760018160050160016101000a81548160ff0219169083151502179055507f3d1e3f05332d7c7fb691181d1b318d54e456144eb56a16d90a23381ab0120a0583334260405180806020018473ffffffffffffffffffffffffffffffffffffffff1673ffffffffffffffffffffffffffffffffffffffff168152602001838152602001828103825285818151815260200191508051906020019080838360005b83811015610b75578082015181840152602081019050610b5a565b50505050905090810190601f168015610ba25780820380516001836020036101000a031916815260200191505b5094505050505060405180910390a150610c92565b5b7faf2d20c49f55eb53be842d6b168f2aafa7baaf2dbac7f44ac0d95c2e421d7e2c83334260405180806020018473ffffffffffffffffffffffffffffffffffffffff1673ffffffffffffffffffffffffffffffffffffffff168152602001838152602001828103825285818151815260200191508051906020019080838360005b83811015610c54578082015181840152602081019050610c39565b50505050905090810190601f168015610c815780820380516001836020036101000a031916815260200191505b5094505050505060405180910390a1505b5050565b6000809054906101000a900473ffffffffffffffffffffffffffffffffffffffff1673ffffffffffffffffffffffffffffffffffffffff163373ffffffffffffffffffffffffffffffffffffffff1614610cef57600080fd5b80600073ffffffffffffffffffffffffffffffffffffffff168173ffffffffffffffffffffffffffffffffffffffff161415610d2a57600080fd5b600073ffffffffffffffffffffffffffffffffffffffff166001846040518082805190602001908083835b60208310610d785780518252602082019150602081019050602083039250610d55565b6001836020036101000a038019825116818451168082178552505050505050905001915050908152602001604051809103902060009054906101000a900473ffffffffffffffffffffffffffffffffffffffff1673ffffffffffffffffffffffffffffffffffffffff1614610ec4577f4c65b7419990d512df2d62894ef482ae36edf0b4567e3288a6d240bdc2b4d27383834260405180806020018473ffffffffffffffffffffffffffffffffffffffff1673ffffffffffffffffffffffffffffffffffffffff168152602001838152602001828103825285818151815260200191508051906020019080838360005b83811015610e83578082015181840152602081019050610e68565b50505050905090810190601f168015610eb05780820380516001836020036101000a031916815260200191505b5094505050505060405180910390a1611045565b816001846040518082805190602001908083835b60208310610efb5780518252602082019150602081019050602083039250610ed8565b6001836020036101000a038019825116818451168082178552505050505050905001915050908152602001604051809103902060006101000a81548173ffffffffffffffffffffffffffffffffffffffff021916908373ffffffffffffffffffffffffffffffffffffffff1602179055507f0a223061b8268a2ebaf138f9f6cb7f197f15d85a3b474395dedee6ff2394baeb83834260405180806020018473ffffffffffffffffffffffffffffffffffffffff1673ffffffffffffffffffffffffffffffffffffffff168152602001838152602001828103825285818151815260200191508051906020019080838360005b83811015611008578082015181840152602081019050610fed565b50505050905090810190601f1680156110355780820380516001836020036101000a031916815260200191505b5094505050505060405180910390a15b505050565b6000809054906101000a900473ffffffffffffffffffffffffffffffffffffffff1681565b60006001826040518082805190602001908083835b602083106110a75780518252602082019150602081019050602083039250611084565b6001836020036101000a038019825116818451168082178552505050505050905001915050908152602001604051809103902060009054906101000a900473ffffffffffffffffffffffffffffffffffffffff169050919050565b606060008060008060008060008060028a6040518082805190602001908083835b602083106111465780518252602082019150602081019050602083039250611123565b6001836020036101000a03801982511681845116808217855250505050505090500191505090815260200160405180910390209050806000018160020160009054906101000a900473ffffffffffffffffffffffffffffffffffffffff168260010160009054906101000a900473ffffffffffffffffffffffffffffffffffffffff16836003015484600401548560050160009054906101000a900460ff168660050160019054906101000a900460ff168760050160029054906101000a900460ff16878054600181600116156101000203166002900480601f01602080910402602001604051908101604052809291908181526020018280546001816001161561010002031660029004801561129e5780601f106112735761010080835404028352916020019161129e565b820191906000526020600020905b81548152906001019060200180831161128157829003601f168201915b505050505097508696508595509850985098509850985098509850985050919395975091939597565b33600073ffffffffffffffffffffffffffffffffffffffff168173ffffffffffffffffffffffffffffffffffffffff16141561130257600080fd5b60006002836040518082805190602001908083835b6020831061133a5780518252602082019150602081019050602083039250611317565b6001836020036101000a038019825116818451168082178552505050505050905001915050908152602001604051809103902090508060010160009054906101000a900473ffffffffffffffffffffffffffffffffffffffff1673ffffffffffffffffffffffffffffffffffffffff163373ffffffffffffffffffffffffffffffffffffffff161480156113dd57508060050160029054906101000a900460ff16155b1561154b5760018160050160026101000a81548160ff0219169083151502179055508060010160009054906101000a900473ffffffffffffffffffffffffffffffffffffffff1673ffffffffffffffffffffffffffffffffffffffff166108fc82600401549081150290604051600060405180830381858888f1935050505015801561146d573d6000803e3d6000fd5b507fd0cfd60d55acd3226ac0fafab52ad35f0ab2fb6eedb946f7d8405108d71df46d83334260405180806020018473ffffffffffffffffffffffffffffffffffffffff1673ffffffffffffffffffffffffffffffffffffffff168152602001838152602001828103825285818151815260200191508051906020019080838360005b8381101561150a5780820151818401526020810190506114ef565b50505050905090810190601f1680156115375780820380516001836020036101000a031916815260200191505b5094505050505060405180910390a1611624565b7f10a89ce7020ddeaae0c0427a7df7a3b694c3dd4f48d5ce7e2809eb9773ec99bf83334260405180806020018473ffffffffffffffffffffffffffffffffffffffff1673ffffffffffffffffffffffffffffffffffffffff168152602001838152602001828103825285818151815260200191508051906020019080838360005b838110156115e75780820151818401526020810190506115cc565b50505050905090810190601f1680156116145780820380516001836020036101000a031916815260200191505b5094505050505060405180910390a15b505050565b6000809054906101000a900473ffffffffffffffffffffffffffffffffffffffff1673ffffffffffffffffffffffffffffffffffffffff163373ffffffffffffffffffffffffffffffffffffffff161461168257600080fd5b60006002826040518082805190602001908083835b602083106116ba5780518252602082019150602081019050602083039250611697565b6001836020036101000a038019825116818451168082178552505050505050905001915050908152602001604051809103902090508060050160029054906101000a900460ff1615801561171c57508060050160009054906101000a900460ff165b801561173657508060050160019054906101000a900460ff165b156119655760018160050160026101000a81548160ff0219169083151502179055507fcc3a7de252b5f0a9ec0225e4f6e85dbe6de549ab6f3749c6ef9db89df8f6ac2682426040518080602001838152602001828103825284818151815260200191508051906020019080838360005b838110156117c15780820151818401526020810190506117a6565b50505050905090810190601f1680156117ee5780820380516001836020036101000a031916815260200191505b50935050505060405180910390a16118eb816000018054600181600116156101000203166002900480601f0160208091040260200160405190810160405280929190818152602001828054600181600116156101000203166002900480156118975780601f1061186c57610100808354040283529160200191611897565b820191906000526020600020905b81548152906001019060200180831161187a57829003601f168201915b50505050508260020160009054906101000a900473ffffffffffffffffffffffffffffffffffffffff168360010160009054906101000a900473ffffffffffffffffffffffffffffffffffffffff166121a8565b15611960578060020160009054906101000a900473ffffffffffffffffffffffffffffffffffffffff1673ffffffffffffffffffffffffffffffffffffffff166108fc82600401549081150290604051600060405180830381858888f1935050505015801561195e573d6000803e3d6000fd5b505b611a0a565b7f99360556d7ae97239c43e0828315db465d5fce31905e71e1e5ef067b17501eb182426040518080602001838152602001828103825284818151815260200191508051906020019080838360005b838110156119ce5780820151818401526020810190506119b3565b50505050905090810190601f1680156119fb5780820380516001836020036101000a031916815260200191505b50935050505060405180910390a15b5050565b33600073ffffffffffffffffffffffffffffffffffffffff168173ffffffffffffffffffffffffffffffffffffffff161415611a4957600080fd5b600073ffffffffffffffffffffffffffffffffffffffff166001836040518082805190602001908083835b60208310611a975780518252602082019150602081019050602083039250611a74565b6001836020036101000a038019825116818451168082178552505050505050905001915050908152602001604051809103902060009054906101000a900473ffffffffffffffffffffffffffffffffffffffff1673ffffffffffffffffffffffffffffffffffffffff1614611f98576040518061010001604052808381526020013373ffffffffffffffffffffffffffffffffffffffff1681526020016001846040518082805190602001908083835b60208310611b6a5780518252602082019150602081019050602083039250611b47565b6001836020036101000a038019825116818451168082178552505050505050905001915050908152602001604051809103902060009054906101000a900473ffffffffffffffffffffffffffffffffffffffff1673ffffffffffffffffffffffffffffffffffffffff168152602001428152602001348152602001600115158152602001600015158152602001600015158152506002846040518082805190602001908083835b60208310611c345780518252602082019150602081019050602083039250611c11565b6001836020036101000a03801982511681845116808217855250505050505090500191505090815260200160405180910390206000820151816000019080519060200190611c839291906126c6565b5060208201518160010160006101000a81548173ffffffffffffffffffffffffffffffffffffffff021916908373ffffffffffffffffffffffffffffffffffffffff16021790555060408201518160020160006101000a81548173ffffffffffffffffffffffffffffffffffffffff021916908373ffffffffffffffffffffffffffffffffffffffff160217905550606082015181600301556080820151816004015560a08201518160050160006101000a81548160ff02191690831515021790555060c08201518160050160016101000a81548160ff02191690831515021790555060e08201518160050160026101000a81548160ff0219169083151502179055509050507f21a35897368d18e66afd8f1fbbc6836048776ec15fc60c1eb9b799e764ef10d88383336001866040518082805190602001908083835b60208310611de35780518252602082019150602081019050602083039250611dc0565b6001836020036101000a038019825116818451168082178552505050505050905001915050908152602001604051809103902060009054906101000a900473ffffffffffffffffffffffffffffffffffffffff1634426040518080602001806020018773ffffffffffffffffffffffffffffffffffffffff1673ffffffffffffffffffffffffffffffffffffffff1681526020018673ffffffffffffffffffffffffffffffffffffffff1673ffffffffffffffffffffffffffffffffffffffff168152602001858152602001848152602001838103835289818151815260200191508051906020019080838360005b83811015611eed578082015181840152602081019050611ed2565b50505050905090810190601f168015611f1a5780820380516001836020036101000a031916815260200191505b50838103825288818151815260200191508051906020019080838360005b83811015611f53578082015181840152602081019050611f38565b50505050905090810190601f168015611f805780820380516001836020036101000a031916815260200191505b509850505050505050505060405180910390a16121a3565b7f1c09c8c448ff96ad307d8a46f392a3a73e8c2f0783110a8dbad011df8bb9f1938383336001866040518082805190602001908083835b60208310611ff25780518252602082019150602081019050602083039250611fcf565b6001836020036101000a038019825116818451168082178552505050505050905001915050908152602001604051809103902060009054906101000a900473ffffffffffffffffffffffffffffffffffffffff1634426040518080602001806020018773ffffffffffffffffffffffffffffffffffffffff1673ffffffffffffffffffffffffffffffffffffffff1681526020018673ffffffffffffffffffffffffffffffffffffffff1673ffffffffffffffffffffffffffffffffffffffff168152602001858152602001848152602001838103835289818151815260200191508051906020019080838360005b838110156120fc5780820151818401526020810190506120e1565b50505050905090810190601f1680156121295780820380516001836020036101000a031916815260200191505b50838103825288818151815260200191508051906020019080838360005b83811015612162578082015181840152602081019050612147565b50505050905090810190601f16801561218f5780820380516001836020036101000a031916815260200191505b509850505050505050505060405180910390a15b505050565b600082600073ffffffffffffffffffffffffffffffffffffffff168173ffffffffffffffffffffffffffffffffffffffff1614156121e557600080fd5b82600073ffffffffffffffffffffffffffffffffffffffff168173ffffffffffffffffffffffffffffffffffffffff16141561222057600080fd5b8473ffffffffffffffffffffffffffffffffffffffff166001876040518082805190602001908083835b6020831061226d578051825260208201915060208101905060208303925061224a565b6001836020036101000a038019825116818451168082178552505050505050905001915050908152602001604051809103902060009054906101000a900473ffffffffffffffffffffffffffffffffffffffff1673ffffffffffffffffffffffffffffffffffffffff161415612523577fe9bf8dbaa7eb0b6910401512e60afcae7734db09df0b7291b4a16e630d796e56866001886040518082805190602001908083835b602083106123355780518252602082019150602081019050602083039250612312565b6001836020036101000a038019825116818451168082178552505050505050905001915050908152602001604051809103902060009054906101000a900473ffffffffffffffffffffffffffffffffffffffff16864260405180806020018573ffffffffffffffffffffffffffffffffffffffff1673ffffffffffffffffffffffffffffffffffffffff1681526020018473ffffffffffffffffffffffffffffffffffffffff1673ffffffffffffffffffffffffffffffffffffffff168152602001838152602001828103825286818151815260200191508051906020019080838360005b8381101561243557808201518184015260208101905061241a565b50505050905090810190601f1680156124625780820380516001836020036101000a031916815260200191505b509550505050505060405180910390a1836001876040518082805190602001908083835b602083106124a95780518252602082019150602081019050602083039250612486565b6001836020036101000a038019825116818451168082178552505050505050905001915050908152602001604051809103902060006101000a81548173ffffffffffffffffffffffffffffffffffffffff021916908373ffffffffffffffffffffffffffffffffffffffff160217905550600192506126bd565b7f4bfe27c062db038acfc130e1d6bcd53ff7c7eccfee70f7487f1c476538aad224866001886040518082805190602001908083835b6020831061257b5780518252602082019150602081019050602083039250612558565b6001836020036101000a038019825116818451168082178552505050505050905001915050908152602001604051809103902060009054906101000a900473ffffffffffffffffffffffffffffffffffffffff16864260405180806020018573ffffffffffffffffffffffffffffffffffffffff1673ffffffffffffffffffffffffffffffffffffffff1681526020018473ffffffffffffffffffffffffffffffffffffffff1673ffffffffffffffffffffffffffffffffffffffff168152602001838152602001828103825286818151815260200191508051906020019080838360005b8381101561267b578082015181840152602081019050612660565b50505050905090810190601f1680156126a85780820380516001836020036101000a031916815260200191505b509550505050505060405180910390a1600092505b50509392505050565b828054600181600116156101000203166002900490600052602060002090601f016020900481019282601f1061270757805160ff1916838001178555612735565b82800160010185558215612735579182015b82811115612734578251825591602001919060010190612719565b5b5090506127429190612746565b5090565b61276891905b8082111561276457600081600090555060010161274c565b5090565b9056fea265627a7a723158207c8e736b3c62c662d3e076e11fd8b6fcd9e9b14b9d3a3d80f6c5a8b0118924c564736f6c63430005100032",
  "source": "pragma solidity ^0.5.0;\r\n\r\ncontract LandRegistry {\r\n\r\n    event NewRegistration(string landId, address owner, uint256 timestamp);\r\n    event NewRegistrationFailed(string landId, address owner, uint256 timestamp);\r\n    event OwnershipTransferred(string landId, address owner, address receiver, uint256 timestamp);\r\n    event OwnershipTransferFailed(string landId, address owner, address receiver, uint256 timestamp);\r\n    event BuyRequest(string requestId, string landId, address requester, address owner, uint256 amount, uint256 timestamp);\r\n    event BuyRequestFailed(string requestId, string landId, address requester, address owner, uint256 amount, uint256 timestamp);\r\n    event AcceptBuyRequest(string requestId, address acceptor, uint256 timestamp);\r\n    event AcceptBuyRequestFailed(string requestId, address acceptor, uint256 timestamp);\r\n    event Withdrawal(string requestId, address withdrawer, uint256 timestamp);\r\n    event WithdrawalFailed(string requestId, address withdrawer, uint256 timestamp);\r\n    event Transfer(string requestId, uint256 timestamp);\r\n    event TransferFailed(string requestId, uint256 timestamp);\r\n\r\n    struct Buy {\r\n        string landId;\r\n        address payable buyer;\r\n        address payable owner;\r\n        uint requestPlacedTimestamp;\r\n        uint256 amount;\r\n\r\n        bool buyerOK;\r\n        bool ownerOK;\r\n\r\n        bool closed;\r\n    }\r\n\r\n    address public registrar;\r\n    mapping(string => address payable) owner;\r\n    mapping(string => Buy) buyOrder;\r\n\r\n    modifier notNullAddress(address someAddress) {\r\n        require(someAddress != address(0));\r\n        _;\r\n    }\r\n\r\n    modifier onlyRegistrar {\r\n        require(msg.sender == registrar);\r\n        _;\r\n    }\r\n\r\n    constructor(address _registrar) public notNullAddress (msg.sender) {\r\n        registrar = _registrar;\r\n    }\r\n\r\n    function register(string memory landId, address payable _owner) public onlyRegistrar notNullAddress(_owner) {\r\n        if (owner[landId] != address(0)) {\r\n            emit NewRegistrationFailed(landId, _owner, now);\r\n        } else {\r\n            owner[landId] = _owner;\r\n            emit NewRegistration(landId, _owner, now);\r\n        }\r\n    }\r\n\r\n    function transfer(string memory landId, address payable oldOwner, address payable newOwner) internal notNullAddress(oldOwner) notNullAddress(newOwner) returns (bool) {\r\n        if (owner[landId] == oldOwner) {\r\n            emit OwnershipTransferred(landId, owner[landId], newOwner, now);\r\n            owner[landId] = newOwner;\r\n            return true;\r\n        } else {\r\n            emit OwnershipTransferFailed(landId, owner[landId], newOwner, now);\r\n        }\r\n        return false;\r\n    }\r\n\r\n    function buyRequest(string memory requestId, string memory landId) public payable notNullAddress(msg.sender) {\r\n        if (owner[landId] != address(0)) {\r\n            buyOrder[requestId] = Buy(landId, msg.sender, owner[landId], now, msg.value, true, false, false);\r\n            emit BuyRequest(requestId, landId, msg.sender, owner[landId], msg.value, now);\r\n        } else {\r\n            emit BuyRequestFailed(requestId, landId, msg.sender, owner[landId], msg.value, now);\r\n        }\r\n    }\r\n\r\n    function acceptBuyRequest(string memory requestId) public notNullAddress(msg.sender) {\r\n        Buy storage buy = buyOrder[requestId];\r\n        if (msg.sender == owner[buy.landId] && owner[buy.landId] == buy.owner) {\r\n            if(!buy.closed) {\r\n                buy.ownerOK = true;\r\n                emit AcceptBuyRequest(requestId, msg.sender, now);\r\n                return;\r\n            }\r\n        }\r\n        emit AcceptBuyRequestFailed(requestId, msg.sender, now);\r\n    }\r\n\r\n    function withdrawBuyRequest(string memory requestId) public notNullAddress(msg.sender) {\r\n        Buy storage buy = buyOrder[requestId];\r\n        if (msg.sender == buy.buyer && !buy.closed) {\r\n            buy.closed = true;\r\n            buy.buyer.transfer(buy.amount);\r\n            emit Withdrawal(requestId, msg.sender, now);\r\n        } else {\r\n            emit WithdrawalFailed(requestId, msg.sender, now);\r\n        }\r\n    }\r\n\r\n    function transfer(string memory requestId) public onlyRegistrar {\r\n        Buy storage buy = buyOrder[requestId];\r\n        if (!buy.closed && buy.buyerOK && buy.ownerOK) {\r\n            buy.closed = true;\r\n            emit Transfer(requestId, now);\r\n            if(transfer(buy.landId, buy.owner, buy.buyer)) {\r\n                buy.owner.transfer(buy.amount);\r\n            }\r\n        } else {\r\n            emit TransferFailed(requestId, now);\r\n        }\r\n    }\r\n\r\n    function getOwner(string memory landId) public view returns (address) {\r\n        return owner[landId];\r\n    }\r\n\r\n    function getBuyOrder(string memory requestId) public view returns (string memory, address, address, uint256, uint256, bool, bool, bool) {\r\n        Buy storage buy = buyOrder[requestId];\r\n        return (buy.landId, buy.owner, buy.buyer, buy.requestPlacedTimestamp, buy.amount, buy.buyerOK, buy.ownerOK, buy.closed);\r\n    }\r\n}",
  "sourcePath": "D:/land-registration-and-transfer-dapp/contracts/LandRegistry.sol",
  "compiler": {
    "name": "solc",
    "version": "0.5.16+commit.9c3226ce.Emscripten.clang"
  },
  "schemaVersion": "3.2.5",
  "updatedAt": "2020-10-11T08:57:28.579Z",
  "devdoc": {
    "methods": {}
  },
  "userdoc": {
    "methods": {}
  }
}